:040000006F10502FFE
:10000400000000000000000090000020A204002076
:10001400A9BDF9F3900000200000000000000000DA
:10002400900000209000002000000000000000006C
:10003400900000200000000090000020000000005C
:1000440090000020900000209000002090000020EC
:100054009000002090000020AC05002090000020BB
:1000640090000020900000209000002090000020CC
:1000740096050020900000209000002090000020B1
:1000840090000020900000209000002090000020AC
:1000940001A04111B7170040985F3AC6945F3247F8
:1000A400E39CE6FE32454101828073270080218B68
:1000B4009387818309CB7327008023ACE182984323
:1000C4005D9B731007800F100000371700409306E4
:1000D40070052300D704930680FA2300D7040F1079
:1000E40000008346B70493F6F60DA305D704230056
:1000F4000704732600809443A18AD18E73900680EE
:1001040023AC01820F100000937605026384061865
:100114000347A700118B25E773270080218B09CBA8
:100124007327008023ACE18298435D9B73100780A2
:100134000F10000037170040930670052300D70402
:10014400930680FA2300D7040F1000008346A7000B
:1001540093E646002305D70023000704F326008016
:100164009843218B558F7310078023AC01820F10A5
:1001740000001307004B010001007D176DFF73277A
:100184000080218B09CB7327008023ACE182984344
:100194005D9B731007800F10000037170040930613
:1001A40070052300D704930680FA2300D7040F10A8
:1001B40000007D892314A700010001000100010053
:1001C40023000704F32600809843218B558F731076
:1001D400078023AC01820F10000073270080218B5D
:1001E40009CB7327008023ACE18298435D9B731095
:1001F40007800F1000003717004093067005230096
:10020400D704930680FA2300D7040F1000000F10C0
:100214000000B726004013061005A383C680230000
:100224000704F32600809843218B558F73100780B1
:1002340023AC01820F10000073270080218B09CBAF
:100244007327008023ACE18298435D9B7310078081
:100254000F10000037170040930670052300D704E1
:10026400930680FA2300D7040F1000008346B704D6
:1002740093E60608A305D704230007047327008028
:100284009C43A18BD98F7390078023AC01820F10FC
:100294000000828093760504638B06140347A7004D
:1002A400418B25E773270080218B09CB73270080BE
:1002B40023ACE18298435D9B731007800F1000000C
:1002C40037170040930670052300D704930680FA7D
:1002D4002300D7040F1000008346A70093E606010D
:1002E4002305D70023000704F32600809843218BBD
:1002F400558F7310078023AC01820F100000130781
:10030400007D010001007D176DFF73270080218BA4
:1003140009CB7327008023ACE18298435D9B731063
:1003240007800F1000003717004093067005230064
:10033400D704930680FA2300D7040F1000009376A5
:10034400F50193E606042314D7000100010001001F
:10035400010023000704F32600809843218B558F66
:100364007310078023AC01820F1000001307600490
:100374006310E50473270080218B09CB7327008069
:1003840023ACE18298435D9B731007800F1000003B
:1003940037170040930670052300D704930680FAAC
:1003A4002300D7040F100000B72600400946B5B556
:1003B40073270080218B09CB7327008023ACE18253
:1003C40098435D9B731007800F100000371700409F
:1003D400930670052300D704930680FA2300D704FC
:1003E4000F100000B7260040130620053DB5732703
:1003F4000080218B09CB7327008023ACE1829843D2
:100404005D9B731007800F100000371700409306A0
:1004140070052300D704930680FA2300D7040F1035
:1004240000008356870093E6060C2314D700C5BB4F
:100434004111814601468145114506C68124F327B1
:100444000080A18B9386818389CBF327008023AC22
:10045400F1829C42DD9B739007800F100000B71758
:100464000040130770052380E704130780FA2380F4
:10047400E7040F10000003C7670413671700238302
:10048400E70423800704732700809C42A18BD98F43
:100494007390078023AC01820F100000B240410129
:1004A40082808146014681451145C92AF32700808F
:1004B400A18B1387818389CBF327008023ACF1823E
:1004C4001C43DD9B739007800F100000B71700409A
:1004D400930670052380D704930680FA2380D704FB
:1004E4000F100000FD562396D70223800704F3263D
:1004F40000801C43A18BD58F7390078023AC0182AD
:100504000F100000F3270080A18B89CBF327008014
:1005140023ACF1821C43DD9B739007800F10000015
:10052400B7170040930670052380D704930680FA1A
:100534002380D7040F10000083C6670493E61600D7
:100544002383D70423800704F32600801C43A18B54
:10055400D58F7390078023AC01820F10000001A097
:10056400BD473305F50201007D1575FD82804111FB
:1005740022C426C206C6AA84014463179400B2406A
:10058400224492444101828005041305803E4204C2
:10059400C13F4180DDB7B71700401307000323882C
:1005A400E702854723A8F18473002030972000E0F8
:1005B400E780207E73002030411106C6A92DFDBFBF
:1005C4002303048015472303E48001002302A4804D
:1005D400828083076480E3CE07FE23030480828045
:1005E40083076480E3CE07FE03454480828083074B
:1005F4006480E3CE07FE2302A4808280411126C4D6
:100604004AC24EC006C61377F50BAD47AA892E8998
:1006140095446306F70019456537653F8D444E855B
:100624004537FD59FD1463983401B240A244124980
:10063400824941018280135509011375F50F453F25
:100644002209CDB7011126CC06CEB70408005137D4
:100654001545BD37713769372AC6A53F32459377AB
:10066400150089EB136515001375F50FF240E2448C
:1006740005618280FD14E9FC0145CDBF397126DC9A
:100684004ADA4ED852D656D45AD25ED006DE62CE5C
:1006940066CCB7E700E07D5783AA070022C603AA09
:1006A400470023A0E71823A2E718B7170040130751
:1006B40070052380E704130780FA2380E70483C7C7
:1006C4004704930B75FFB684E20793FBFB0F854643
:1006D400AA892E8B328937240040E187015763FAB7
:1006E40076016308D5008946130700026313D50019
:1006F4000157D98F93F7F70FB71C00402382FC04EE
:1007040011472303E4801305F00F5D3D094CD135F7
:10071400636D7C11B7050700DA95378707007955B3
:1007240063F2E504B3879500636EF702370B0800A4
:10073400A94733EB65016399F90689E48144513D86
:1007440026850DA0DA850945553D05090345F9FFC0
:10075400FD14050B693D81C49377FB0FFDF7DD356F
:1007640069FD7D55B7170040130770052380E70422
:10077400130780FA2380E70403C74704418B2382CD
:10078400E704F250B7E700E023A0571123A2471172
:10079400E25432445259C259325AA25A125B825B11
:1007A400724CE24C21618280A5476395F906856904
:1007B4001309F00FB3069900B3742B01B6941349CF
:1007C400F9FFB3749900856B33796901416B9387A1
:1007D400F9FFB3F7270199E363FC340193D9490086
:1007E400C147E3E637FF99BF0569C1697D19D9B7E8
:1007F4001305800D63886901130500026384790180
:1008040013051008CA85DD3B353D21DD4E99B384BF
:100814003441D9B7DA852D45D533CA94E30099F22A
:1008240005097D3BA30FA9FED5BF9387F9FF93F775
:10083400F70F6361FC0C83C71C0413073008631FA4
:10084400F70437070800636BEB04B3079B00B70694
:10085400100063F5D704334BEB0089476393F90623
:100864008980D549E38C04ECDA850945413B1109BB
:100874000327C9FF91472320E48003076480E34EE4
:1008840007FE23033481FD17EDFBFD14110B81C416
:100894009377FB0FE9FF7D3371F5E1B5B71700409E
:1008A40003C75704B70708001377070219E3B7878C
:1008B40007007955E378FBEA33079B00E3FFE7F889
:1008C40055B58547E382F9F2DA852D45053B9389D1
:1008D400F4FFE38504E6293393F7390091EB83268B
:1008E40004800327090093074900E39AE6E43E895C
:1008F400CE84F1BFB5476396F9001305900BC93157
:1009040035BDB1471305B00AE38BF9FE99476391EE
:10091400F904B7050800B365BB002D45C531814412
:100924008D4BA14975396396740183270480232074
:10093400F9008504E39834FF8327048013172B01FF
:10094400635507002312F900D5BB2322F900FDB338
:100954009D476399F90281451305B0044531BD44AF
:100964002320090023220900FD599D3993F77400BF
:10097400CA9703C70700FD14398D2380A700E396A7
:1009840034FF6DBBA1476392F9046D398144630D53
:100994000B008D479304C0036308FB009304000518
:1009A40063048B01930440041375C507E30895D8C9
:1009B4001945393139390545213126850D3909451E
:1009C4003D314931E31C05D669BB91476399F90070
:1009D40013056006F536F53E130590090DB7E38F50
:1009E40009D4F154A9BB19CD91CD09CE81473387E0
:1009F400F500834607003307F50085072300D70079
:100A0400E317F6FE828019C991C909CA910583A723
:100A1400C5FF11057D16232EF5FEC5BF828001C9D1
:100A240019C62A960505A30FB5FEE31DA6FE82800E
:100A340081473307F5000307070019E33E858280E9
:100A44008507C5BF01112E8626CAAA84131506017F
:100A54009305F004418122CC06CE32C6EF00F05B50
:100A64002A8401C53246A685BD3F2285F2406244F0
:100A7400D24405618280854715C18DC105C2814775
:100A8400B306F5003387F50083C606000347070065
:100A94006398E6008507E315F6FE85473E85828068
:100AA4008147EDBF9307F6FFBE952A966313C500F1
:100AB4008280FD1583C715000505A30FF5FEFDB75C
:100AC400AA87014581CF09CE3E96850703C7F7FF64
:100AD4006317B700E39BC7FE05458280828001450A
:100AE400828079719387818722D4804306D626D267
:100AF4004AD04ECE52CC56CA5AC85EC65DCCB7C494
:100B0400C901014B938901879384F437173A000094
:100B1400130A4A7B973A0000938A8A7E1749000099
:100B2400130949828357240085E35C44631B0B004B
:100B340023ACF186832BC4002285EF00705A5E84B7
:100B4400B9A82326FB00FDB783A7090082971C449C
:100B54003307F5406376F500032749001D8F2A9774
:100B640063E0E4089737000023A4077A8355240040
:100B740003450400973000E0E780A0F75C40584448
:100B8400A1CB0C4403264900AE97BE8663E4B700AC
:100B940063E4C700B386C74014C4228B3A8459F077
:100BA400973700009387C7759C4B09476370F70616
:100BB400F91717370000232DF774B25022549254BA
:100BC4000259F249624AD24A424BB24B4561828091
:100BD40063150B0023ACE186B1BF2326EB0099BF5C
:100BE40003274A0209CF63EFA7003385A74083A7F1
:100BF4000A016376F5009737000023ABA770228BB8
:100C0400404471BF03274900BA97C5B7973700001E
:100C140023A007705DB7411122C4173400001304E8
:100C2400A4701C4006C626C24AC091C78297973753
:100C3400000023AB076E9747000083C73787858B77
:100C4400974400009384448695C397470000A38F7C
:100C5400078483C774001547637AF700C12B83C7E1
:100C64007400F5178A07A2979C4382971C4491C38A
:100C7400829713894186032709001736000003462B
:100C840036689737000083C7A76793961700BA960C
:100C940083D60600C5CE9737000083C7676663E135
:100CA400C70C97370000238D07641C406395071217
:100CB4009737000083C7D77F91CF83C7740093F71A
:100CC400F70F89EB97370000A384077E970001E0B4
:100CD400E780A0BF938701879C43638E070E9737F5
:100CE400000093872766DC43173700002322F7624E
:100CF400CD3B973700009387E75CDC53E9CF173788
:100D040000001307E75F184B9737000083C7D75CD1
:100D14006363F70C83C774001547636EF70A97374C
:100D2400000083C7E77C918BDDE703260900973633
:100D3400000083C6F65C63C6D70A2244B2409244DC
:100D44000249410117D301E06700830A850793F73D
:100D5400F70F973600002385F65AE3E4C7F225BF60
:100D640086073E97835507002310070023960186C4
:100D74009387C1879C4317350000034565581317B3
:100D84002500BA979C43829783D7C1861737000002
:100D94000347075793C7F7FF7D8D93171700032762
:100DA40009003E97835707005D8D2310A7009737EE
:100DB400000083C7E75491C7850717370000230154
:100DC400F754173700000347A7539737000083C72A
:100DD4003753E378F7ECB24022449244024941018C
:100DE4008280139717003297035707006DF7850722
:100DF40099B7AD6737C70040BD072326F7200F100A
:100E04000000973700009387A74FC84F8327872692
:100E1400BD66BD0693C7F7FF99836A052326D720CD
:100E24005D8D82804111B7170040985F3AC6945F88
:100E34003247E39CE6FE3245410182801305F00F00
:100E44008280011122CC604126CA4AC84EC652C4CF
:100E540006CEAA841D4A130965058549BC4463640A
:100E6400F4000545B9A003C7D40083474400631ABE
:100E7400470503C784026304F7000040C5B703476E
:100E8400540083C75405E31AF7FE1946CA851305AF
:100E94006400D536E31335FF0347C40083C79402C7
:100EA400E31DF7FC0357E40083D7A402E317F7FC20
:100EB4000145F2406244D2444249B249224A0561A2
:100EC4008280E31CF7FA0347540083C75405E316F2
:100ED400F7FA1946CA8513056400713EE31F35F914
:100EE400C1BF0111973700009387C76722CC03A4C1
:100EF400070C26CA06CE2AC42EC6854419E4014529
:100F0400F2406244D24405618280834791000347E2
:100F14001400858B6304F7000044CDB7194693058C
:100F2400A10013052400813EE31895FE0545C9BFC1
:100F3400138701911C439306001094C30100010020
:100F4400010001001C4323A0070083461500034849
:100F54002500A2064208C29603480500C29603482B
:100F640035006208C29694D783465500034865004D
:100F7400A2064208C29603484500C296034875007B
:100F84006208C296D4D7834695000348A500A206FA
:100F94004208C29603488500C2960348B500620819
:100FA400C29694DB8346D5000348E500A2064208B6
:100FB400C2960348C5000345F500C2966205AA9689
:100FC400D4DB83C6150003C52500A2064205AA96F4
:100FD40003C50500AA9603C535006205AA9694CFF9
:100FE40083C6550003C56500A2064205AA9603C53B
:100FF4004500AA9603C575006205AA96D4CF83C698
:10100400950003C5A500A2064205AA9603C585005E
:10101400AA9603C5B5006205AA9694D383C6D500E3
:1010240003C5E500A2064205AA9603C5C50083C50B
:10103400F500AA96E205AE96D4D3D443F59AD4C368
:10104400D44393E61600D4C3944393E6160094C3A2
:10105400BA879443D842058B59E3984E014523003F
:10106400E6009843184F2183A300E6009843184FE5
:1010740041832301E6009843184F6183A301E600EE
:101084009C43D84F2302E600D84F2183A302E600F5
:10109400D84F41832303E600D84F6183A303E600BE
:1010A40098532304E60098532183A304E60098533D
:1010B40041832305E60098536183A305E600D853D2
:1010C4002306E600D8532183A306E600D8534183C0
:1010D4002307E600DC53E183A307F60082800100C6
:1010E4008DBF138741911443411122C49C5E4AC0B1
:1010F40006C6998326C2858B3A8413890191D1C788
:101104009C5E973400009384243A93F7F7F99CDEAD
:10111400173700000347A73993070008631BF7003C
:10112400832709009C4393F7070417370000230023
:10113400F73883C7040093F707048DC393870187A7
:101144009C4382979737000023A8A73683C70400DF
:1011540093F7F70B173700002308F73483C74400CD
:1011640093F707049DE3854717370000A300F7347E
:10117400938701929C43096798C7130700FC97362D
:1011840000002385E632D844F8D31C40985F1183CD
:10119400058B09CB985F3D9B98DF05479736000088
:1011A4002386E630985F1D83058B11CB985F1377F8
:1011B400F7F798DF8547173700002309F72E8327B1
:1011C4000900D8430583058B19C7D843759BD8C339
:1011D400D843799BD8C3B240224492440249410186
:1011E4008280397106DE16DC1ADA1ED82AD62ED48D
:1011F40032D236D03ACE3ECC42CA46C872C676C443
:101204007AC27EC0F93DF250E2525253C253325573
:10121400A255125682567247E2475248C248324E8D
:10122400A24E124F824F21617300203093870192A6
:101234009443973700009387272703C70700058B3C
:1012440011CB973700002383072697370000A38F1D
:101254000724828003C71700058B65F7F85271FFD6
:1012640083C75700DDB713884191032708001C5F2B
:101274009583858BD1E709C61C5BBD832300F600EB
:1012840085CA83270800985B46079357670163560E
:10129400070093E707C0C207C18303970600C2078C
:1012A400C18709C7BA970947B3C7E7022390F60075
:1012B40085CD834715008DCB9736000083C6261F46
:1012C40093F606041387970089478DCA3A95034716
:1012D4000500854699471376F7066311D60262071F
:1012E4006187B947634C0700832708009C5FED833F
:1012F4008D8B17370000A30EF71A81473E85828035
:101304008547EDBF411122C406C6138401921840DB
:101314002DE9AE877453FDFE3E85B28597370000F4
:101324002385071897F000E0E780602F93874191A9
:101334009C43B70680009843558F98C3D857719B38
:10134400D8D797370000A383071697370000A38DDB
:1013540007141C40094798C31440173700001307AB
:10136400A71483472700858B89EB83473700858B38
:10137400D9C397370000238B0712B240224441019E
:1013840082808D47631EF500938741919C43B70685
:1013940080009843558F98C3D857719BD8D76DBF99
:1013A4008547E31BF5FA5447F977FD17F58F5CC7BA
:1013B4000F1000001C40096798C7130700F8173680
:1013C40000002305E60E1387419110431842318330
:1013D4000D8B11E713076019F8D3D4C7B5BF1842B2
:1013E400094631830D8B6315C7001307E043EDB73E
:1013F4001307E01BD5B7FC52ADF741B75D71A2C42A
:10140400A6C22A84130680022800AE84930510081D
:1014140086C6CAC04EDE52DCEFF06FE0354597F069
:1014240000E0E780205C13834191832703009376D7
:10143400F41F138E819223A40700984B938E01927C
:10144400370FFCFF1367F70398CBF84F130510F819
:10145400B7020400137707E0558FF8CF9843F57669
:10146400FD16758F98C39843B70633009303802500
:101474001377F7E798C3984311497D1F1377F7E76C
:101484001367071098C303270E008549930F800242
:101494001C47D58F1CC783A70E001307900D34007B
:1014A400B8CB014793553700A69583C7050013763B
:1014B4007700B3D7C740858BE1C383270300832814
:1014C4000E00239C07042390070603A8C802137880
:1014D400D8FF23A6080383A807001378F70793F817
:1014E40008F833E8080123A0070103A8470233687A
:1014F400580023A2070383A80E00014823A27806FC
:1015040003DA07066307480303A80703038A0600F0
:101514001358F80062081358884163580A0103A855
:1015240007031358F8002380060103D8070613782D
:10153400F80F03AA480663060A0003DA8705E37F67
:1015440049FB03A847023378E80123A207038387F2
:101554000600635CF40003C805003396C900134613
:10156400F6FF337606012380C5003E8663D3A700C9
:101574002A8613158601618505071377F70F8506FB
:10158400E312F7F3B640264496440649F259625AE8
:1015940061618280938601929C42D8471316170199
:1015A40063550602984713161701635006027D57C8
:1015B400B8D7173700001307A7D4584F05071736B5
:1015C4000000232DE6D4116798C798470D83058B37
:1015D4001DCB17370000034747ED13671700173675
:1015E40000002304E6EC130700F817360000230F6D
:1015F400E6EA214798C71387419110435856719BD7
:101604001367170058D69847058B0DC71737000086
:10161400034797E91367170017360000A306E6E8A7
:10162400054798C71387419110435856719B136718
:10163400170058D698470983058B09E7984705830F
:10164400058B21CF9847173600001306E6E513856E
:1016540041910983058B63030710184118433183B3
:101664000D8B75EBAC4B184E93F505020347170031
:10167400CDCD79EF13077006D8CF03470600136763
:101684001700173600002301E6E2114798C71841F6
:101694005C57F19B93E717005CD79C4298479316DD
:1016A400370163D606029736000083C626F3C18A43
:1016B40017370000130707EBC5CE034787071367E7
:1016C400070297360000238BE6F0056798C7984712
:1016D4009316270163D1060217370000034707DD7D
:1016E4006207618763570700054797360000238F19
:1016F400E6DA096798C798479316070163D6060286
:101704009736000083C696ED858A173700001307C5
:1017140067E5ADCE034797071367270097360000A8
:10172400A38EE6EA216798C7828029D78545631589
:10173400B7001307B00689B789456315B7001307C7
:10174400F0061DBF8D456315B700130730072DB78D
:101754001307500715B71307600739BF034736004F
:101764001367170017360000A301E6D4094739BFF1
:10177400834687070946BD8A6388C60003478707EF
:101784008D463D8BE313D7F4114725BF8346970756
:10179400918AC9DA034797071367870041B73971FC
:1017A40006DE16DC1ADA1ED82AD62ED432D236D069
:1017B4003ACE3ECC42CA46C872C676C47AC27EC00D
:1017C400D13BF250E2525253C2533255A2551256F3
:1017D40082567247E2475248C248324EA24E124FD6
:1017E400824F21617300203093870192984385676B
:1017F400938707777CD3938781929C4383A60709B9
:10180400139656006358060083A6070913966600CC
:10181400634406007453FDF2828061C1AA870145C6
:10182400DDCD8D07C207C183F19BC207C1831307B6
:101834004003636BF7021387419B08431387C19AE4
:1018440014436396A602173700001307A7A7185B73
:10185400014551C74111C20706C60545DD8D0297F2
:10186400B2400145410182801387019BF9B70357B8
:10187400650035E303574500636FF704B306F7408B
:101884002146637CD60203280500938687001D8FBA
:10189400AA966117173600000356E6A62392E600BF
:1018A40023A006012393060014C12312F500130795
:1018B40086FF973600002398E6A42313B5009735D6
:1018C400000083D545A4B387F54017370000231CD7
:1018D400F7A2210582800841ADB70145828082804C
:1018E40009CD9387419B03A307009387C19A83A8DB
:1018F400070081469A8763E31701828003A80700E3
:101904006369F50A6367A80A13878700E367E5FE3E
:1019140003D66700216705076317E60003C7418EF6
:1019240005072382E18E973500009385659D03D6D4
:10193400470003D76500239307003297420741838A
:10194400173500002311E59C638867021385019B0A
:1019540008416303F50203D5660019ED83D74600F9
:1019640023A0060121073E9621062392C60097373D
:101974000000239AE798B6879843E30017F9938603
:10198400019B9442E30BD7F683566700BDF683D6DA
:101994004700035647001843A106B2962392D70086
:1019A40098C383D76500A10717370000231DF79458
:1019B4008280BE86C28781B7797122D406D683C756
:1019C40035002E8423160100A307F10083C74500C8
:1019D400100802C02307F10083C755008A8502C29C
:1019E400A306F10002C402C802CA02CC02CEEFF080
:1019F4002FD40347F1018347040001456310F70224
:101A04000347E1018347140001456319F7000345C7
:101A1400D101834724001D8D13351500B250225483
:101A2400456182800111973700009387A7B322CCC8
:101A340003A4870C26CA4AC84EC606CEAA84130934
:101A44002500854915C083C7140003473400858BDE
:101A54006304F700405CFDB71946930544004A85CA
:101A6400EFF06F81E31835FF2285F2406244D244DF
:101A74004249B2490561828041119737000093873A
:101A840067AE22C403A4870C26C24AC006C69304C8
:101A94002500054901E82285B240224492440249C6
:101AA40041018280A6851305A4023937E30525FF89
:101AB400405CCDB74111973700009387A7AA22C491
:101AC40003A4870C26C24AC006C693042500054910
:101AD40001E82285B24022449244024941018280B5
:101AE400A6851305A401C93DE30525FF405CCDB7D8
:101AF400971100209381418E1761002013014150FA
:101B04001305400097E5FF1F9385854F17060020B6
:101B1400130606FE63FAC5008322050023A05500C0
:101B240011059105E3EAC5FE17C501001305453803
:101B3400970500209385C5FB1386818363FAC5004E
:101B44008322050023A0550011059105E3EAC5FE93
:101B54001385818397350020938505B36377B5009A
:101B6400232005001105E36DB5FEFD42739002BC10
:101B74008D4273904280930280087390023097E202
:101B8400FF1F9382E24793E232007390523037177B
:101B94000040930770052300F704930780FA23009D
:101BA400F7040F1000003C47B70600FAE116F58F62
:101BB400B70600069506D58F3CC79722000093828E
:101BC40062B67390123473002030B717004003C715
:101BD40077051377E70FA38BE704130700F8A38DAA
:101BE400E7043D47238CE70413075003A38CE70461
:101BF4008280B717004083C7E7020D8993F7C70FA8
:101C0400C98F73270080218B9386818309CB732727
:101C1400008023ACE18298425D9B731007800F1013
:101C2400000037170040130670052300C70413068D
:101C340080FA2300C7040F1000002307F7022300D3
:101C44000704732700809C42A18BD98F739007806F
:101C540023AC01820F100000828041112A83014EBF
:101C6400930E407E130F0019930F400663E66E1423
:101C74009308001913034006B3781503854E0D4FDE
:101C8400A14F337365020D891335150063E0BE1649
:101C94001308F6FF7946729842081358080133076F
:101CA400C70213D61700BE0732976146B3F6C602C1
:101CB40013068070B386C6023697A166F58F420775
:101CC4005D8FB716004083C7F60293F70708A30792
:101CD400F1000346F10083C7F60293F70708E39483
:101CE400C7FE8347F100B716004093F7F70F6389E7
:101CF4000714F3270080A18B9386818363980714CC
:101D04000F100000B7170040130670052380C704A6
:101D1400130680FA2380C7040F10000023AA0703C8
:101D240003C6170313660608A388C70223800704A3
:101D3400732600809C42A18BD18F7390078023ACC3
:101D440001820F1000001166B71500407D16DC59A2
:101D5400C85DA98FF18FE5FFF3270080A18B89CBA4
:101D6400F327008023ACF1829C42DD9B73900780B3
:101D74000F100000B7170040130670052380C70436
:101D8400130680FA2380C7040F100000D8DB03C7B2
:101D9400170313670704A388E70223800704732744
:101DA40000809C42A18BD98F7390078023AC018261
:101DB4000F100000410182807D133368E303930810
:101DC400E016630E08003368F3039308D016630823
:101DD40008009378330093B818009388D816330812
:101DE4001E01131E0801135E0E0149B56393E5033A
:101DF4000548638608000148630303002A887108C4
:101E04007298FD15131E0801C205135E0E01C181EF
:101E1400B5BD13F8150063F4BF007908D5B71338BE
:101E24001800E5BF83C7F60293F70708A307F1007C
:101E34000346F10083C7F60293F70708E394C7FE4D
:101E44008347F10093F7F70FF1DF65B5F3270080BF
:101E540023ACF1829C42DD9B7390078055B5597188
:101E6400E2C486D6A2D4A6D2CAD0CECED2CCD6CA0A
:101E7400DAC8DEC6E6C2EAC06EDE2A8C02D6EF00FD
:101E8400B00BF3270080A18B138D818391CBF327B3
:101E9400008023ACF18283270D00DD9B73900780C3
:101EA4000F100000B7170040130770052380E704E4
:101EB400130780FA2380E7040F10000003C7F7021A
:101EC4001377770FA387E70203C7F7021367870027
:101ED400A387E702238007047327008083270D006C
:101EE400A18BD98F7390078023AC01820F1000005F
:101EF400F3270080A18B91CBF327008023ACF182E0
:101F040083270D00DD9B739007800F100000B71727
:101F14000040130770052380E704130780FA238029
:101F2400E7040F10000003C7E7021377C70F2387E6
:101F3400E70203C7E702136717002387E70223803A
:101F440007047327008083270D00A18BD98F73901A
:101F5400078023AC01820F100000130780C13347B0
:101F6400E5029169938709E8130650023D69B74475
:101F74000F0093840424856B130BA004014A814A47
:101F840013047005FD19B347F5023307C7023EC2B7
:101F9400930709A61309803E3347F7023AC433472F
:101FA40025030549331989011359394033459502ED
:101FB40093840BFAB3948401811B3306C702B3469E
:101FC400F6023309E90236C6330B6703130760557B
:101FD400B3049502130500103309E902B346FB026A
:101FE400130B80FAB3C4A40236C8B347F90293961C
:101FF40034003719004036CC930409043ECA7326D2
:102004000080218A11CA7326008023ACC182032672
:102014000D005D9A731006800F1000009307700581
:102024002380F400238064010F1000000346390567
:102034001376860FA309C9040346390513661600EF
:10204400A309C904238004007325008003260D001E
:10205400218A498E7310068023AC01820F10000080
:10206400916CE17D73260080218A11CA7326008059
:1020740023ACC18203260D005D9A731006800F10F5
:102084000000930770052380F400238064010F107F
:1020940000000346390513660602A309C904035662
:1020A4000905336696012318C904035609053366E6
:1020B400B601420641822318C90423800400732513
:1020C400008003260D00218A498E7310068023ACFC
:1020D40001820F10000003463905137606026305DA
:1020E400061603463905218A6DDE681079257326A4
:1020F4000080218A11CA7326008023ACC182032682
:102104000D005D9A731006800F1000002380840078
:10211400238064010F100000034639051376F60D81
:10212400A309C9040346390513660602A309C904B1
:1021340003560905336696012318C9040356090595
:102144003366B601420641822318C9042380040081
:102154007325008003260D00218A498E73100680A2
:1021640023AC01820F1000000346390513760602E2
:102174006308061003463905218A6DFE97E0FF1FA8
:10218400E78020F12A8632CE97E0FF1FE78060F0D7
:102194007246E30AC5FE03560905325533669601B5
:1021A4002318C904DD2B03463905218A6DDE035546
:1021B400090503462905924733F5A9003386C90268
:1021C40032951D8DA24763D5A700B2476346F50E2D
:1021D40009466365560FC247850A1316150093FA1C
:1021E400FA0F3346F6026354A03A0506094533460E
:1021F400A60273250080218911C97325008023ACB0
:10220400A18203250D005D99731005800F10000055
:1022140023808400238064010F1000000355C90249
:102224002A96420641822316C9022380040073259C
:10223400008003260D00218A498E7310068023AC8A
:1022440001820F10000039BD73260080218A11CA53
:102254007326008023ACC18203260D005D9A73109F
:1022640006800F10000023808400238064010F1077
:1022740000000346390513660602A309C90435BDE7
:1022840073260080218A11CA7326008023ACC18280
:1022940003260D005D9A731006800F100000238042
:1022A4008400238064010F1000000346390513667F
:1022B4000602A309C90459BDE38F0AF073260080FE
:1022C400218A11CA7326008023ACC18203260D0023
:1022D4005D9A731006800F10000023808400238011
:1022E40064010F100000034639051375FC0F1376C3
:1022F400860FA309C90403463905498EA309C904F5
:10230400238004007328008003260D00218A33668D
:1023140006017310068023AC01820F1000000346EF
:1023240039051D8A6317862773260080218A11CAFE
:102334007326008023ACC18203260D005D9A7310BE
:1023440006800F10000023808400238064010F1096
:1023540000000346390511651376F60DA309C90477
:102364000346390513660602A309C9040356090581
:10237400498E2318C904035609052165498E23187B
:10238400C904238004007325008003260D00218ADC
:10239400498E7310068023AC01820F10000003469F
:1023A400390513760602630E062003463905218A91
:1023B4006DDE6810D92673260080218A11CA73261F
:1023C400008023ACC18203260D005D9A7310068041
:1023D4000F10000023808400238064010F1000008C
:1023E4000346390511651376F60DA309C90403469E
:1023F400390513660602A309C90403560905498E63
:102404002318C904035609052165498E2318C904F4
:10241400238004007325008003260D00218A498E41
:102424007310068023AC01820F10000003463905A7
:10243400137606026303061C03463905218A6DFEE2
:1024440097E0FF1FE780E0C4AA8C97E0FF1FE780B6
:1024540040C4E30C95FF035609051165498E3255B6
:102464002318C9041D2E03463905218A6DDE7326FF
:102474000080218A1385818309CA7326008023ACD6
:10248400C18210415D9A731006800F1000002380F2
:102494008400238064010F1000000346390513767D
:1024A400F60DA309C9042380040073280080104199
:1024B400218A336606017310068023AC01820F1053
:1024C40000000358090503462905E24733F80901CA
:1024D4003386C90232983308F8401306800C330659
:1024E400C802D2473346F60263550015050609486B
:1024F400334606036351C0140358C9029308F00F0E
:1025040013585800329863D6081F09466373461956
:10251400F3270080A18B89CBF327008023ACF182C1
:102524001C41DD9B739007800F100000371700409B
:10253400930770052300F704930780FA2300F70438
:102544000F1000008356C70289678117D58FC20711
:10255400C1832316F70223000704732700801C415C
:10256400A18BD98F7390078023AC01820F100000D8
:10257400B650265496540659F649664AD64A464BEE
:10258400B64B264C964C064DF25D656182807D16F5
:10259400B1B973260080218A11CA7326008023AC46
:1025A400C18203260D005D9A731006800F1000008F
:1025B40023808400238064010F1000000346390542
:1025C4002DBB73260080218A11CA7326008023AC98
:1025D400C18203260D005D9A731006800F1000005F
:1025E40023808400238064010F1000000346390512
:1025F40013660602A309C90469B373260080218AFD
:1026040011CA7326008023ACC18203260D005D9A93
:10261400731006800F10000023808400238064015F
:102624000F1000000346390513660602A309C90406
:10263400C5B37D166DBD55CE0358C902B308C0405D
:10264400135858006357180B094663744605F3275B
:102654000080A18B89CBF327008023ACF1821C413D
:10266400DD9B739007800F100000B717004013071D
:1026740070052380E704130780FA2380E7040F1012
:10268400000003D7C7027D8B2396E702238007044B
:10269400E9B573260080218A09CA7326008023AC19
:1026A400C18210415D9A731006800F1000002380D0
:1026B4008400238064010F1000000356C9021376BE
:1026C400F60F33667601420641822316C90223803F
:1026D4000400732800801041218A336606017310B8
:1026E400068023AC01820F100000050A137AFA0F4A
:1026F40039B2F3270080A18B89CBF327008023AC68
:10270400F1821C41DD9B739007800F100000B71706
:102714000040130770052380E704130780FA238021
:10272400E7040F10000003D7C70216063A964206C4
:1027340041822396C70299BFB717004003D587008B
:10274400420541819377050491EB9377F501375561
:10275400E801130505803345F50282809377050C63
:10276400130700046397E7009377F50137459C1C32
:10277400CDB72165130505D0828037E700E01C43FF
:102784005443A183E206D58F1CC1FD572320F718BB
:102794002322F7180F100000828013178500B7E773
:1027A40000E023A0E710618123A2A7108280B7F77D
:1027B40000E08847CC478280B78700402380070029
:1027C4001307C0FC2386E700A386E70003D7C18371
:1027D4002398E70003D70184239AE70003D74184B1
:1027E400239CE70003D78184239EE7008946238145
:1027F400D70249472383E7022385E7022387E702B9
:102804002389D702A3810700130790022380E700DE
:10281400B716004003D7A6011367070C239DE600F3
:102824007D572383E700130710F8A380E7001D47B3
:102834002381E7008280B78700402384A70203C76F
:10284400A7021377C70F2385E702828011456FF033
:102854000FE1411193962500AA852D4506C697E000
:10286400FF1FE780A0E1B240014541018280411190
:1028740026C29394250022C44AC02A843289A6869B
:10288400AA850146254506C697E0FF1FE78000DFBD
:10289400A6864A86A285294597E0FF1FE78000DEC9
:1028A400B24022449244024901454101828001110F
:1028B40022CC06CE3714004026CA4AC84EC652C49B
:1028C40083447405034AB405834984050349940584
:1028D400EFF0AFAF8347A40593F4F40F137AFA0F24
:1028E40093E71700230DF40493F9F90F1379F90F03
:1028F400B717004003C7A705058B6DFF03D5C705B0
:10290400A38D4705238C3705A38C2705A38B970438
:10291400F2406244D2444249B249224A056182806B
:1029240041119397050122C406C6C1872E8463DD35
:102934000700EF00906A19C1EF0010632165218D33
:10294400B24022444101828093F7150013C515005B
:10295400E5FB9397250163D00702EFE0C035FD3511
:1029640037F60200130606E0896503C5C184EF103B
:10297400E0280965E9B7939715010145E3D207FCFF
:1029840013060064916503C5C184EF102027116507
:102994007DB71D71494697B50100938525DF17B5AD
:1029A4000100130565F786CE97E0FF1FE780A00CB2
:1029B40011E101A0B7F600E0795798CAFD57DCCAC7
:1029C4000567B7E700E023A0E7101306F00290C202
:1029D40023A0E7180F1000001306C0038145480820
:1029E40097E0FF1FE780A00397070020938747CD58
:1029F4003ECA8967938707C0231CF100B5472304A7
:102A0400F102A167938707E03ECEB70701059387DC
:102A140007103ED0ED472312F10285472303F1024C
:102A240097070000938727E3BEC4970700009387A6
:102A340047E4BEC68567938717D02315F10297072D
:102A44000000938707D73EDAB7F507009707000021
:102A5400938727E63EDE814697070000938747DF8A
:102A64007000E1051945BEC097E0FF1FE78000C173
:102A740058088147994670003E960346060085072C
:102A84000507A30CC700E398D7FED24791C70357A5
:102A9400810185676373F70001A04808EF10005EA9
:102AA40011C101A0F6402561828041111705000083
:102AB400130545E706C622C4EF10C0581384C18429
:102AC4002300A4001928034504002244B24013063D
:102AD4000032896541016F106012411106C6F32767
:102AE4000080A18B1387818389CBF327008023ACDB
:102AF400F1821C43DD9B739007800F100000B71711
:102B04000040930670052380D704930680FA23803F
:102B1400D7040F10000083C6F70293F6A60FA3870D
:102B2400D70223800704F32600801C43A18BD58F92
:102B34007390078023AC01820F100000F3270080FC
:102B4400A18B89CBF327008023ACF1821C43DD9B4E
:102B5400739007800F100000B717004093067005AC
:102B64002380D704930680FA2380D7040F10000033
:102B740083C6F70293E62600A387D70223800704BF
:102B8400F32600801C43A18BD58F7390078023AC60
:102B940001820F1000000545EFF0AF85453913059C
:102BA400407E81470147814605468545EFF0EF8A1F
:102BB400B240014541016F10C07C83572500035585
:102BC40005003385A740420541818280AA8705C25A
:102BD4001307F6FFB376C700054599EA23A007005B
:102BE400CCC32394C7002395E700014582800545A3
:102BF4008280232005008280AA87114595C70DC6CF
:102C040083D6070003D787000545369783D6270068
:102C1400158F83560600420741836367D7000D452D
:102C240001C70145014795E582803385E500834866
:102C3400050003D8A70003D527000507337805014D
:102C4400C84342952300150103D5270005052391A8
:102C5400A700131507014181E369D5FC2310D600B1
:102C640001458280AA871145B1CF29CE83D60700BA
:102C740003D72700158F83560600420741836373E9
:102C8400D700BA86C206C18209450DCF01476366E3
:102C9400D7002310D6000145828003D5070003D84E
:102CA400A70033780501C8434295034805003385DE
:102CB400E50005072300050103D50700050523905A
:102CC400A700F1B78280938701A023AEF182938796
:102CD40001AC23A0F184938701B4411123A2F184B0
:102CE400938701BC06C623A4F184F934B240B7E744
:102CF40000E03707400023A0E71041018280B78736
:102D0400004083C7A70205458D8BB1C3011113850C
:102D1400811506CE5D352317A10009E5F240014572
:102D2400056182809307000263F4A7002317F10072
:102D3400938741848C431306E100138581159385A1
:102D440005040D3761FD0345E100F534C1BF828000
:102D540083C7D18595EB0DC9411106C6AD471376DE
:102D6400F50F63F3A7002D46A38EC1849387418496
:102D74008C431385C1D4EFA0B115B24003C5C185FE
:102D8400A14541016F0070568280011106CE22CC0C
:102D940026CA4AC84EC6B787004003C767001377E0
:102DA400F70F93762700638D064403C777009306D5
:102DB400000313770703630BD70203C77700914619
:102DC4001377F703630CD71E63E3E60C85466305AC
:102DD400D71C6309071C8946630DD7188D46630DFC
:102DE400D71AB787004009472383E7003787004095
:102DF40083477700E207E18763DE072C930720FC13
:102E04002301F7029386C1838842034775008347F1
:102E1400650022075D8F239BE18483471500A38A05
:102E2400F1848344050013F604066305061E1307A4
:102E3400000C6399E4321307F005639EE71897B713
:102E44000100938767F623ACF18401440946938714
:102E540081858C43EFA0D1079307F00F6301F4261B
:102E640083D76185930600043E8763F4F600130755
:102E7400000442074183998F9376F70F239BF184D3
:102E8400B78700402380D702130700FC2DAC9306BC
:102E94002002630AD70E63E3E60293060002630688
:102EA400D70493061002E31ED7F203C76702137711
:102EB400C70F136727002383E70225B79306300261
:102EC4006305D70E93064002E31DD7F003C727031B
:102ED400134707042389E70203C727031377C70FA0
:102EE400136727002389E702EDBD03C75185954683
:102EF4006303D7069946631BD7069387618503D47A
:102F0400070013070004BE846374870013040004DD
:102F14009387C183138981858843420483250900EB
:102F240041802286EFA0C17A83D704009379F40FFD
:102F3400818F239BF184832709003E9423AC8184F1
:102F4400B78700402380370303C7270213470704CA
:102F54002381E70279B503C7370083C661851377F8
:102F64000708558FA381E7000947DDB723800702CF
:102F7400E5BF03C7770013770704E30407E603C537
:102F84008700F933B9BD03C7A7021377C70F1367C7
:102F940027002385E702B1B503C777001377070439
:102FA400E30107E483C787002DBD03C7E702137756
:102FB400C70F136727002387E70225B503C77700E8
:102FC40013770704E30F07E003C727031347070832
:102FD4002389E702C1BF130750091304F00F639953
:102FE400E7028347350003472500A207D98F6147CD
:102FF4006397E70097B70100938747DBA9B51947A3
:1030040001446397E70097B70100938767DA25BD0A
:10301400014635BD29466364F60A17A60100130666
:1030240026788A07B2979C43B297828783473500F4
:10303400834625000946A207D58F93D6870063826D
:10304400C60A6368D6008547638FF6001304F00F41
:1030540009A88D456381B60A930720020144E397CA
:10306400F6FE814709A897A701009387A77823ACA8
:10307400F1840144C947C207C18363F4E700239B79
:10308400F1849387618503D607009307000463F4F2
:10309400C70013060004938981851319060183A5CB
:1030A4000900135909014A86EFA0816203A60900A9
:1030B4004A9623ACC1849307F00F6315F40AB787CB
:1030C40000401307F0FC2381E702B787004009475B
:1030D4002383E700F2406244D2444249B249056185
:1030E400828097A701009387676E23ACF184014423
:1030F4009307700249B793F7F70F8546638ED7009D
:103104008DC7E395C7F497A701009387E77023ACB5
:10311400F1840144F14785B797A701009387C76EEF
:1031240023ACF1840144B947B9B797B70100938739
:1031340067C723ACF1840144914735BF8347250019
:10314400239BF18405A083C741852300F50003D7A1
:103154006185854763F8E7008547DDB78347250028
:10316400238AF184E204E184E3CC04CE814609BBE2
:1031740013F7F4018947E314F7F4834745006381A7
:10318400E704636CF7000547E39BE7F237870040E9
:103194008347670293F7370799A0130710086388DA
:1031A400E70213072008E39CE7F0378700408347D2
:1031B400A70293F7C70B93E727002305F7025DB730
:1031C400378700408347A70293F73707FDB7378750
:1031D40000408347670293F7C70B93E72700230355
:1031E400F70249B7230005009DB7230005009C4260
:1031F400A380070003D761858947E3F5E7F689B71C
:103204009376170099CEA381070009472381E7022B
:1032140049472383E7022385E7022387E70205471B
:1032240045BD93764700E38506EA83C75700918B33
:1032340091C7914503C5C185EF00300BB7870040A6
:10324400114779B501114EC606CE22CC26CA4AC80A
:1032540083C95116638109042A8993848116014420
:103264001946CA852685EFA0414405C5050499047D
:10327400E34834FF014503C7411685476314F7004B
:1032840013451500F2406244D2444249B2490561F3
:1032940082800545CDB70545F5B7397126DA8344F3
:1032A400250022DC06DE4AD84ED6B5472A84638F31
:1032B400F40A63ED9700C9C88547638AF412F25093
:1032C4006254D2544259B25921618280C147638207
:1032D400F414C947E395F4FE930555002E852EC6D4
:1032E400953771DD0347440083C76116F98FE1FB0D
:1032F40083499401A381E1C4238191C4238031C50E
:103304008347C4000347B400B2459207D98F238290
:10331400F1C48347F40013990901135909011946AB
:10332400138551C4231F2101A380F1C4EFA0413AA6
:10333400630809004C4C4E861385B1C4EFA0413993
:103344002D09231F210171A083D541800945EF2058
:10335400F01B97F5FF1F83C5358813051002EF2076
:10336400F01A81455545EF20701A91BF9305550019
:103374002E852EC6C13D21D50347440083C761165F
:10338400F98FE39E07F20349C400B245194623802E
:1033940021C58347340093140901C1802381F1C4FA
:1033A400A381E1C4C5472382F1C48347B4001385D4
:1033B40051C4231F9100A380F1C4EFA0613199C4CB
:1033C4000C484A861385B1C4EFA08130AD04231F95
:1033D40091001306E101938501C413858115EFF073
:1033E400BF81C14503C5C185EF002070C9BD97E702
:1033F400FF1F83C7777EE38407EC014697E5FF1F31
:1034040083C5A57D17E5FF1F0345057DEF20A14674
:103414007DB5930555002E852EC62D35E30105EAAD
:103424000347440083C76116B245F98FE39907E85F
:10343400238001C4834734001946138551C4238172
:10344400F1C4A381E1C4C5472382F1C483472401A5
:10345400A380F1C4EFA0C127AD47231FF10095BF9E
:103464004111170500001305252306C622C4EF00E9
:10347400703D1384C1852300A400938581D5130670
:10348400004013858115EFF06FF4034504002244D6
:10349400B2408545410191AD011102C293970601E5
:1034A400C18302C4A303D100FD5606CE2311F1004B
:1034B4002316010023070100A302A1002303B10086
:1034C4002304D10091CF994632873E8663F3F600F8
:1034D40019461376F60FBA8513059100EFA0411F24
:1034E400A38E0184AD47130621004C00138581157A
:1034F4002311F100EFF04FF0C14503C5C185F52359
:10350400F24005618280411106C6EF204139B24084
:103514001385811541016FF0CFED411106C622C418
:1035240003C7C1D48547631DF7088D4763F0A71609
:1035340083C7D1D493F6770017E7FF1FA30ED7688C
:1035440013D73700058B17E6FF1F2308E66813D748
:1035540047000D8B998383C5F1D417E6FF1F230D14
:10356400E666A2052383F11683C7E1D4DD8D239299
:10357400B180A9C60945EF20607997E5FF1F83C58F
:10358400B56513051002EF20607881455545EF209D
:10359400E077014697E5FF1F83C5256417E5FF1F04
:1035A40003458563EF20212D8D461386D1D483C531
:1035B400511605452244B2404101F9BDA937EDB782
:1035C400994663F6A60809466311C70423820116C7
:1035D40083C751161307F003138441166360F7027F
:1035E4003385D70219469385D1D411052295EFA0CE
:1035F400210E834714008507A382F116994613868A
:10360400D1D483C55116094575B70D466310C70853
:103614002382F11603C551169307F0031384411650
:1036240063E0A7023305D50219469385D1D4110569
:103634002295EFA0E109834714008507A382F116C0
:1036440099461386D1D483C551160D45A5B71DCD12
:103654009147631BF700A382011681461386D1D4D8
:10366400930500041145B9B715E3B7F50700814682
:103674001386C1D4E105194597D0FF1FE7800000E8
:1036840099461386C1D4C54501452DB7B24022449D
:1036940041018280411122C406C693F705012E849C
:1036A4008DC7EFF0CFE5094619E513858115EFF0D5
:1036B400CFD011C50546C14503C5C1858123134536
:1036C4000401B24022444101828093F7850081CBFA
:1036D40003C5D18511C1913513458400DDB7939796
:1036E4000501C18763DA070003C5C185FD2011C147
:1036F400A5282165218DF1B793F7150091CB17A566
:1037040001001305256BEF2061151345140055BF07
:1037140093F745000145D5D7FD331345440055B70C
:1037240041111305800406C697D0FF1FE780E09778
:10373400EFF02FA6EFF06FB7EF2061301533EFF005
:103744008FD897D0FF1FE78020E723AC05FE1C41EC
:1037540091E7010001000CC18280BA8703A787FFAB
:103764006DFF23ACB7FE82801DC18346E5FF1307BE
:10377400F00F9147639EE600411106C697E0FF1FD4
:10378400E7800016B24081473E854101828095471B
:103794003E85828001E9014582800145B240224490
:1037A4004101828095654111938505D022C4C98D5C
:1037B4002A842105C2054205C181418106C697E0DC
:1037C400FF1FE780800571D9FD57232005002312D0
:1037D40085002303F5002105D1B7138701861C4317
:1037E400411122C426C24AC006C601440149BA8412
:1037F40089E7A165212D0DC401A803C7E7FF63185C
:10380400A7021DC8A165D5249840832784FF6317A8
:10381400E40223A0F186FD57232C04FE230FF4FEBB
:103824002285B2402244924402494101828011E03F
:103834003E8983A787FF6DBF3E84E5BF232CF9FE35
:10384400D9BFA1CD411122C406C62A8497170020EE
:1038540083C7D7AA2E856375F400894763E8870078
:1038640021370D45B24022444101828083A785FF60
:1038740099E703C7E5FF9307F00F6305F700ED35FC
:103884001545CDB7238F85FE138501867D3D2285A1
:103894002244B240A165410189AC1545828023A030
:1038A40001868280938781879C4399E33E85828049
:1038B40003D727006316B70003C70700E308A7FE72
:1038C400DC47E5B7BDCD797122D406D626D24AD0DD
:1038D4004ECE01444147B3D78540858BB1CF120505
:1038E400314722953305E5029387818603A90700B2
:1038F4008544B3948400C204C180BE892A990327F5
:10390400090011C7032549002EC60297B245314765
:103914003304E40283A709003E941C4489E723206E
:10392400090023220900B2502254A58D0259925451
:10393400F2492E85456182800504E31EE4F8814442
:10394400DDB72E85828041111397050122C406C676
:1039540026C24AC041872E84635E0700BD3D11C163
:103964002135A1673D8C2285B2402244924402490C
:1039740041018280EDD9AA8701474146B356E4400C
:10398400858A9DCA9207BA97B146B387D7029386B0
:10399400818603A906008544B394E400C204C1806F
:1039A4003E998327090003254900829723200900B3
:1039B40023220900258C45BF0507E311C7FC814478
:1039C400D5BF971700209387A78F9C53411122C41A
:1039D40006C61384818099C782971C403E9523A410
:1039E400A18029A0938701879C43FDF70840B7472E
:1039F40003009387D73F3305F502B7A726009387C3
:103A040037ECB24022443E9523A4A1804101828038
:103A140079C9938701879C43797122D426D24AD0ED
:103A24004ECE52CC56CA5AC806D65EC63A8AB68913
:103A3400328BAE8A2A898297938781869843BE8483
:103A44000144B146C147B30BD40233067701104297
:103A540051E6C165938505F0414597E0FF1FE78076
:103A6400C0DB1DE597170020938787859C5B2D4558
:103A740089C71145814582972D45B25022549254ED
:103A84000259F249624AD24A424BB24B45618280A2
:103A94009387818798431DEF23ACA18623000500FB
:103AA4009C4005473317870023260500232465011E
:103AB4002311E50023224501DE9723A0270123A239
:103AC400570123A447010145E38909FA23808900AA
:103AD4006DB73E875C47F5FF48C7C9B70504E314D3
:103AE400F4F6214559BF094582809717002083C702
:103AF400F780637FF5001387418693171500084309
:103B04003E9583570500DD8D2310B5000145828065
:103B14000D4582809707002083C7577E6371F502A5
:103B24001387418693171500084393C5F5FF3E9507
:103B340083570500FD8D2310B500014582800D4596
:103B44008280130705FF1377F70FFD4763E5E70A44
:103B5400B146B306D5029387818698438947369741
:103B6400184359CB011122CC4EC605449359450044
:103B74003D893315A40013140501418026CA4E85DE
:103B8400AE84A2854AC806CE313B2A89814721CD1D
:103B9400A2854E854137938701879C438297970777
:103BA400002083D7677A338797022A8481461306D5
:103BB4000064B3B7970213050732B335E500BE9529
:103BC400EF902175B307850097060020938646770A
:103BD4003E87D44263E4A70063E4D7003387D74029
:103BE4002324E9008147F2406244D2444249B24965
:103BF4003E850561828089473E8582809707002043
:103C040083C7D76F6364F5000145828001119387F0
:103C1400018756C283AA070006CE22CC26CA4AC808
:103C24004EC652C4638D0A0A170A0020130A4A7149
:103C340083244A00B74736FE938707C8AE899705A1
:103C4400002083D56570BE94B387C5022A84328967
:103C54008146B3B5C50213850732B337F5001306A1
:103C64000064BE95EF90E16A63EBA406829A97051F
:103C7400002083D5656DB3872503AA8413060064E9
:103C84008146B3B5250313850732B337F500BE95D6
:103C9400EF902168B3079500BE8403274A0063E4CC
:103CA400A70063E4E700B384E740CE852285DD3EC8
:103CB40001C504C505452DA0936504F0C205C18165
:103CC400414597E0FF1FE78040B505E597070020D1
:103CD4009387075F9C5B81C7A28511458297014545
:103CE400F2406244D2444249B249224A924A0561AE
:103CF4008280938781879C438DE323ACA18685478B
:103D04002326050004C52311350123008500A300E3
:103D1400F5002322050079BFBA87D84775FFC8C7C5
:103D2400F9BF49C9797122D426D24AD04ECE52CC99
:103D340056CA5EC662C466C206D65AC83689328A74
:103D4400AE89AA844144314C938A8186854C930B75
:103D54000003330B840303A70A005A971C43B1E7FB
:103D64009375F400B395BC0013554440C2055286C4
:103D7400C1811375F50F59350DC983A70A00014593
:103D8400DA9784C323A2370163040900230089005E
:103D9400B250225492540259F249624AD24A424BD6
:103DA400B24B224C924C456182800504E31374FBB0
:103DB4002145F9BF09458280411122C426C24AC067
:103DC40006C62A842E89B284153DCA852285D93C2B
:103DD40005CD9705002083D52557B38795022A84FE
:103DE400130600648146B3B5950213850732B337D1
:103DF400F500BE95EF90E15148C00145B240224420
:103E040092440249410182802145CDBF411122C41F
:103E140026C24AC006C62A892E846934AA8419C1D6
:103E240023110500A2854A85F5319707002083C731
:103E3400E74C6397270183D7C1865D8C23968186DF
:103E4400014591E01945B24022449244024941019E
:103E540082809307F00263E6A7044111B14722C4AC
:103E64003304F50226C2938481869C4006C6A29739
:103E7400984389470DC39377F5008545B395F500BD
:103E8400C205C181118159379C40A29723A0070024
:103E940023A207008147B240224492443E85410157
:103EA400828089473E858280411106C622C4EFF094
:103EB4007F9F11E50145B2402244410182809387EE
:103EC40001879C43004582979707002093874747C3
:103ED4006368A402D843B74636FE938606C8330502
:103EE400A4403697E378E5FC13070064B335E50294
:103EF40003D6870081463305E502EF90814165BF13
:103F0400D8433A94C1BF411106C623AAA18602959B
:103F1400B2409707002023AFA73E014541018280AC
:103F2400994763E9B7008A05970700209387873F7D
:103F3400BE9588C1828041117146814517050020D4
:103F44001305453E06C623AC018623AA018623A891
:103F5400018697D0FF1FE78080AC1306800281455D
:103F6400170500201305853997D0FF1FE78020AB84
:103F7400EF1031369707002083C7F73513D5270094
:103F84008D8B3E958D473305F502854539051375AF
:103F9400F50F970700202384A73699473305F502C8
:103FA4001305052497E0FF1FE780208723A4A1863B
:103FB40059C5994717060020034666343306F602AE
:103FC40081451306062497D0FF1FE78040A59387F9
:103FD40081869C439387072423AEF186170700202C
:103FE4000347E7310A07BA9723A2F186EFF03F8B24
:103FF400F9299387C18794439707002083C7173013
:10400400139727003697170600001306E68B10C394
:10401400138717001377F70F0A0736971706000060
:104024001306A69210C313873700890793F7F70F77
:104034008A0797050020A383E52CB69790C3B24066
:10404400410182809707002083C7572B1707002060
:104054000347E72A63F1E7021387C187184393866E
:10406400170017060020A30BD6289396270036972F
:1040740008C33E8582809307F00FE5BF1C41638827
:10408400071641777D8FB706002089476312D7163C
:1040940003574500630E0714411122C419462A84AC
:1040A4009305F00F690506C697D0FF1FE78040A16E
:1040B40005478D476308E5121C4481CB585899473E
:1040C40063020712185C630F07101306C0038145CF
:1040D400170500201305C51E97D0FF1FE780209405
:1040E4001306C003A285170500201305651D97D08C
:1040F400FF1FE780408F170700200357271D9707EE
:1041040000209387E71B19E7130700109706002088
:10411400239EE61A170700200347671B11E705478C
:10412400970600202385E61A170700200357471A2D
:1041340011E76D4797060020239CE6181707002017
:104144000347F71811E7154797060020A381E618DF
:10415400170700200347E71711E7054797060020D4
:104164002389E616170700200347B71619E703C784
:10417400F70097060020A38EE614170700200347D4
:10418400671511E73547970600202385E6141707BE
:1041940000200347771419E71307800297060020CD
:1041A400A38CE612170700200347D71219E7130759
:1041B400D00297060020A38FE6100347840119E775
:1041C4001307C003970600202388E6109C5791C765
:1041D4008297970700202397A712FD57A38DF19884
:1041E400993B8147B24022443E8541018280894700
:1041F4003E85828001114EC6970900209389491497
:1042040083A7090006CE22CC26CA4AC852C4829784
:1042140013090064B335250303DA89008146528605
:1042240033052503EF90E10E970700209387070DD0
:10423400804FAA8401456306940233858440636EEB
:10424400940003A5490052868146B335A90233057B
:10425400A902EF90010C018D26959707002023AB4E
:10426400970AF2406244D2444249B249224A056163
:1042740082809707002083D7470D51471D45637CF3
:10428400F702794719456378F702130720031545A8
:104294006373F7021307B0041145637EF700130735
:1042A40040060D456379F7001307600909456374F7
:1042B400F70013B5B70F8280011122CC06CE2A84F1
:1042C4002EC6EFF00FF0B245F240818D33A5A50262
:1042D400229562441375F50F05618280011122CC89
:1042E40006CE2A842EC6EFF0CFEDB245F240818D82
:1042F40033A5A5022295624442054181056182806D
:10430400011122CC06CE2A842EC6EFF08FEBB245E3
:10431400F240818D33B5A502229562440561828005
:10432400970700209387C7F9985739CB411122C4C6
:1043340026C206C6BE84029717070020035787FCCF
:104344002A8415CBBA876373A700AA87C207C183DF
:10435400BA866373E400A286C206C182958F514770
:10436400635BF700DC5491C38297EFC0D0149707C6
:104374000020239987F8B24022449244410182806C
:104384008280970700209387A7F3DC57011106CE9C
:10439400AA8581C72AC68297B245C9C19C410545F1
:1043A400BDCBDC41ADCB83D78500B5C783D7A50092
:1043B400BDC383C7C500A5E3414617050020130507
:1043C40025F897C0FF1FE7800062970700209387B6
:1043D40027F79C4323A8F1869707002083C7D7EFCC
:1043E4008DE793078002170500200355E5F5330593
:1043F400F50237460F001306062481468145EF80F7
:10440400517197070020A389A7EC17050000130535
:10441400A5DED53C0145F240056182809707002066
:1044240083C767EB13978701618763540704970772
:10443400002023A307EE97D7FF1F9387879B1707B7
:104444000020232FF7EE7D579707002023ACE7EEDB
:10445400B7873200938727A19706002023A6F6EE9C
:1044640097070020238407EEB7C7004023A4E7265C
:10447400A9BF13F7170005CFB7872003938707D089
:10448400170700202322F7ECB707C0A8170700205E
:10449400232AF7EA97D7FF1F9387C79817070020A7
:1044A4002320F7EA97070020238207EA39BF6177C0
:1044B40097060020239AE6E881CB9307003217077A
:1044C40000202314F7E8C9B793072003CDBF0111D7
:1044D40022CC170400201304A4DE084406CE26CA06
:1044E4004AC801E90545F2406244D24442490561A3
:1044F40082805C58E5DB185C75D77000854582972F
:104504001844B247E300F7FE9305E00417050020C2
:104514000355C5DB97D0FF1FE78020301707002025
:10452400232EA7DE61D117060020035626DA930551
:10453400F00F97C0FF1FE780804E814417090020C9
:104544001309C9DB9707002083C767D8032609022C
:1045540063C1F402328597D0FF1FE78060380145BC
:104564009707002023AC07DA9707002023AA07DA6D
:104574009DBF9705002083D565D5B3879502084470
:10458400185C898185043E9508C2029765BF0111B4
:1045940056C2970A0020938AAAD283A78A0022CC03
:1045A4004AC84EC606CE26CA52C45AC0AA892E8408
:1045B40032896385072203A74A03630707147D47EB
:1045C4006366A71497040020938444D303AA0402C7
:1045D40063170A0A9565938515E0170500200355AE
:1045E400E5CE97D0FF1FE78040239707002023A73D
:1045F400A7D22A86630A051083A74A0303A58A0063
:104604009705002083D585CC8981829783A78A006A
:1046140003AA0402170700202324F7D08947639CC8
:10462400F908C1476312F40E9705002083D505CA23
:10463400938505FC9147B3C5F5028A05D29503C756
:1046440005009307A005631DF70A83C71500639946
:10465400370B4A852286910597C0FF1FE780A03853
:104664009C505285639347150145F2406244D244FD
:104674004249B249224A924A024B05618280D8508B
:10468400E38EE7F89565938525E01705002003552B
:10469400E5C397D0FF1FE78040182A8A35C52A86CC
:1046A40083A74A0303A58A009705002083D505C282
:1046B40089818297A5B78D47639DF900C14763152A
:1046C400F4049705002083D565C0938545FDF199D1
:1046D400B5B79147639AF90063183403970500202E
:1046E40083D5C5BEA115E5B7C147639FF900A147AE
:1046F40063EC87009705002083D545BDC115C1BF74
:104704009C5052856397470D294585B71307F006DA
:10471400568B6361A70A130A05FE1947334AEA0256
:1047240017070020035787BA970A0020938A0ABD07
:10473400330AEA023E9A83A74A026395470183A497
:104744000A029DE49305E00417050020035505B80B
:1047540097D0FF1FE780600CAA845DD583274B03A5
:104764009705002083D585B62A868981528582974C
:1047740091451307A005898193972500A69783C6C1
:1047840007006393E60483C61700639C360385051C
:104794008A052286A6954A8597C0FF1FE780A02434
:1047A40083A70A02E38297EC268597D0FF1FE78050
:1047B40020135DBD1307E007E368A7F4130A05F9A6
:1047C40085B783D5270045BF83A70A02E38E97F2F6
:1047D400268597D0FF1FE780A0103DB797070020DC
:1047E4009387C7B18C538DD191479306A0058983D4
:1047F400139727002E9703460700E317D6F00346C6
:104804001700631C360185078A072286BE954A85F0
:1048140097C0FF1FE780201D81BD83572700C1BFBC
:10482400970700209387C7A9984739C79C5FA9C7F2
:1048340005476313E504411122C41704002013043F
:10484400E4AB105006C60DC648509705002083D52A
:10485400E5A789818297085097D0FF1FE780400819
:104864009707002023AC07AA9707002023AA07AACA
:10487400B240224441018280828001111707002046
:10488400130707A44EC68329870022CC26CA4AC828
:1048940006CE52C456C2AA842E843289638A092061
:1048A4001C5FBA8A99EB2945F2406244D2444249DA
:1048B400B249224A924A056182805C5BEDD7FD478A
:1048C40063E9A70E97090020938949A383A70902E6
:1048D400B1CB03A58A0083A749026395A70689473C
:1048E4006393F408C147E310F4FC17050020035553
:1048F400E59D9147130505FC3345F5029317250003
:1049040003A509022286CA853E959307A0052300C4
:10491400F500A3009500110597C0FF1FE780A00CC8
:10492400014559B79305E004170500200355059A7E
:1049340097D0FF1FE78060EE9707002023A0A79E73
:1049440049F995B783A74A0303A6090297050020EE
:1049540083D5C5978981829783A78A00170700208A
:104964002320F79CADBF8D47639EF400C147E31C31
:10497400F4F21705002003556595130545FD93775B
:10498400C5FFBDBF9147639AF400E31E94F0170579
:1049940000200355A5932115DDB7C147E395F4F035
:1049A400A147E3E287F0170500200355259241153E
:1049B400F9B79307F00663EAA706930705FE1947BC
:1049C400B3C7E7021707002003574790170A0020D0
:1049D400130ACA92B387E702BE9983270A02A9CFB2
:1049E40083274A02639A370703250A02914613086C
:1049F400A005FD5593D72600C207C183139727004E
:104A04002A9703460700631D0607834817000356C9
:104A1400270063959806B306D64063CF86048507BE
:104A24008A072286CA853E95C5BD9307E007E3EC55
:104A3400A7E6930705F979B79305E0041705002065
:104A44000355C58897D0FF1FE78020DD9707002016
:104A540023A6A78C51F581BD83A74A0303260A0226
:104A64009705002083D5858689814E85829797078F
:104A7400002023A7378B8DBFA300B700B2869DBF4C
:104A8400B385860017060020035646849105130655
:104A940006FCE3FAC5E0130634001376C60F1106CC
:104AA400B29623000701A30097002311D70085BF06
:104AB40097070020938787849453BE89A1C203A5D6
:104AC400090291461308A005FD5593D72600C20795
:104AD400C183139727002A97034607006316060528
:104AE400834817000356270063989800B306D640FE
:104AF400E3D786F2A300B700B286C1BF8357C700CD
:104B040017F5FF1F0345A57C9305E0043305F50263
:104B14004205418197D0FF1FE78020D097F7FF1F00
:104B240023AEA77E49FD41B317F6FF1F0356067A4D
:104B340097F5FF1F83C5A579B385C5023386860023
:104B44001106E3E2C5D681BF01458280011106CE7C
:104B54002EC6EF50201801C9B245F2400355250076
:104B640005616F90E049F240494505618280A38464
:104B7400018A2384018A23A8018823AA018823ACFB
:104B8400018823AE018823A6018823A4018897F70E
:104B9400FF1F9387E77B370684033707B40090D35E
:104BA40037C6070098C3130606B83747A000D8C312
:104BB400D0D33707100041669306070AB7055000A3
:104BC4009308060194C723A4170393860501930849
:104BD40016F8D4C723A61703B706D007B7087F0073
:104BE4001308070513850601410723A81703B0C35B
:104BF400930816009386060513861500D8CBF8C3D0
:104C040023A8070188CF23AE070023AA170323ACE8
:104C1400070223AE070223A40704F0C7B4CB23AAD8
:104C24000704ACCF23AE0705B8D33707A000F8D7E5
:104C34001307000AB8DB1307C01CF8DB370714009E
:104C4400B8DF0547F8DF130710F8E8D323A40706F5
:104C540023A0070823A2E7088280011126CAAA8498
:104C6400214522CC06CE2E8432C636C43AC2EFE0A9
:104C74007FB21DC9A24612473246930700FD2300A6
:104C8400F5009947A30095002301F5002303D500FF
:104C9400A303E5002312C500AA8522856244F240DD
:104CA400D24405616FE0FFB9F2406244D244056129
:104CB400828023A8A188828023AAA188828023AC31
:104CC400A188828023AEA1888280011122CC4AC8A7
:104CD40006CE26CA2A890144B30489006368B40055
:104CE400F2406244D2444249056182802EC6EFE01C
:104CF4005FCD93170501C183A183B2452380F400DE
:104D04009307140093F7F70F850463F9B700CA9764
:104D140009042380A7001374F40F7DBF3E847DBF74
:104D2400C16717F5FF1F0355856BFD176304F50273
:104D3400411117F6FF1F034626769385018A06C69E
:104D4400EF405058B240FD5717F7FF1F2319F7687B
:104D540041018280828009C925151375F50F133529
:104D6400850E13451500828001458280239005003D
:104D7400C9C6797122D426D24ECE52CC5AC806D690
:104D84004AD056CA5EC63684328AAE892A8B81449A
:104D940063F34407B307940083C70700138914001F
:104DA4004209939A070193DA0A01135909016384AA
:104DB4000A04CA976341FA04B307240183CB0700AA
:104DC4005E85513F0DC99387FAFF2390F9006390E4
:104DD4006B03130519002295B250225492540259C0
:104DE400F249624AD24A424BB24B45618280D69420
:104DF400C204C18071BF0145C5B70145828041111C
:104E040026C2AE8422C497F7FF1F23A1C75E97F77B
:104E1400FF1F23ABB75C97F7FF1F23A5A75C2A846A
:104E240041469305F00F26854AC006C6054997C03A
:104E3400FF1FE780E0C86310250597F7FF1F9387DE
:104E4400A759884BC145513541469305F00F22853A
:104E540097C0FF1FE780C0C68544631895022244AB
:104E640097F7FF1F93874757B24092440249C847B8
:104E7400C145410199BD41468145268597C0FF1F23
:104E8400E78000C4E31225FD4DBF414681452285DC
:104E940097C0FF1FE780C0C2E30395FCB2402244E1
:104EA4009244024941018280411122C426C22E84C7
:104EB400AA8413060002814517F5FF1F1305C55187
:104EC40006C697C0FF1FE78080B597F7FF1FA3862C
:104ED400975097F7FF1F2383875CEF9060148547F3
:104EE40019C181474945B240224417F7FF1F2305E2
:104EF400F74E924441018280814781CD19C985478B
:104F0400631BF50083C7550093E707FCA382F500F4
:104F140085473E85828089476317F50083C755001E
:104F240093F7F703E5B70D478547E314E5FE03C799
:104F340055001377F70313670704A382E500D1BF75
:104F440081478DC105C103C755009306000C8547F1
:104F54001377070C6308D700930600048D47630397
:104F6400D70089473E858280411122C4005D06C670
:104F740026C21DC8AA84085009C597D0FF1FE78020
:104F84002096485009C597D0FF1FE78060950854C4
:104F940009C597D0FF1FE780A094228597D0FF1FF3
:104FA400E780009423AC0402B240224492444101BD
:104FB400828009ED97F7FF1F83C7274217F5FF1F6C
:104FC4001305054381CB13850188828017F5FF1FE4
:104FD40013050542828017F5FF1F034505408280B3
:104FE40097F7FF1F9387473FC847828097F7FF1FB4
:104FF4009387873E884B828097F7FF1F9387C73D2F
:10500400DC4B8843828097F7FF1F9387E73CD84B9C
:105014001C4385071CC317F5FF1F0345153C930765
:10502400F00F6305F50091656FE03FAC82800111DC
:1050340022CC06CE2E8432C6EF40105A9147B24598
:10504400631FF5009387C1899C438DC303A30700A5
:10505400630E030022856244F24005610283938754
:1050640041899C4381C703A34700DDB7F2406244F2
:10507400054505618280011122CC2A84035545002F
:1050840006CE26CA4AC84EC6EF4030342DC52A89FA
:10509400834405008349C500C13D4A85EF50A00DF6
:1050A40003554400EF40904E83C7818AA9CB63988F
:1050B400970483C5918A2685513C19E12384018A8A
:1050C40003554400EF4050519147631FF5000357C7
:1050D400440097F7FF1F83D787306317F700FD5706
:1050E40017F7FF1F231DF72EF2406244D2444249B2
:1050F400B2490561828081499304F00F75B7930723
:10510400F00FE38FF4FA834664000356440003452A
:1051140024004E87A685913665B779715EC6AA8B41
:105124002E8552CC56CA5AC806D622D426D24AD084
:105134004ECEAE8A328B368AEF4030297DC1045D73
:105144002A89E5C09C50614599C3130540039C54CA
:1051540081C751054205418163050A007105420575
:105164004181DC5081C75D0542054181EFE08FE25A
:105174002A8445C96146814597C0FF1FE780208A7C
:1051840097F9FF1F83C9C91F639409008349090064
:10519400930700FD2300F400A947A3007401230131
:1051A400F400230364018C50231254011305840179
:1051B40091C908C47146930A440397C0FF1FE7804E
:1051C400808256858C5491C948C45146930A45013E
:1051D40097C0FF1FE78020815685630C0A0008C82A
:1051E4007146D285930AC50197B0FF1FE780A07F5F
:1051F4005685CC5099C548C85D4697B0FF1FE780D7
:10520400807EA2854E85EFE0CFE32254B2509254C3
:10521400F249624AD24A424BB24B4A85025945612D
:10522400A1B3B250225492540259F249624AD24A6A
:10523400424BB24B4561828001114EC6AA892E852C
:105244004AC806CE22CC26CA2E89EF40101821C99E
:1052540097F4FF1F83C4C41299E0834405001945E1
:10526400EFE04FD32A8405CD8145194697B0FF1F3F
:10527400E780E07A930700FD2300F400B947A30018
:1052840034012301F40023122401A2856244F24074
:105294004249B2492685D24405616FE08FDAF24073
:1052A4006244D2444249B2490561828039715ECE7A
:1052B400AA8B2E8526DA4ED652D456D25AD006DE82
:1052C40022DC4AD8AE84328BB68A3A8ABE8942C678
:1052D400EF40B00F21CD2A894145EFE0AFCB2A84BE
:1052E40031C54146814597B0FF1FE780407317F5EC
:1052F400FF1F0345E50819E103450900930700FD75
:105304002300F400BD472301F400B247A300740155
:105314002312940023046401A304540123054401CB
:10532400A30534015CC4A285EFE0AFD1F25062540E
:10533400D2544259B259225A925A025BF24B216119
:105344008280797126D2AA8439454AD04ECE06D6B7
:1053540022D42EC6B2893689EFE0CFC321C1B2452B
:105364009307000D2310F500B1472A842312B500DA
:105374002301F500CE851905194697B0FF1FE78074
:10538400806623062401A2852254B2500259F249B0
:1053940013F5F40F925445616FE0AFCAB250225432
:1053A40092540259F2494561828017F7FF1F03475F
:1053B400D7029307F00F630DF706411126C2AA84A2
:1053C400394522C406C64AC0EFE0CFBC2A8439C995
:1053D400930700FD2300F500A300950023010500B9
:1053E40097F5FF1F9385C5000D05194697B0FF1F5C
:1053F400E780605F17F9FF1F130909FE83578900CF
:10540400A28517F5FF1F034555FD2315F4008347B7
:1054140019002306F4002244B24092440249410197
:105424006FE02FC2B240224492440249410182807B
:10543400828001115AC02A8B314526CA4EC652C4F5
:1054440056C206CE22CC4AC8AE84B28A368ABA89FB
:10545400EFE04FB435CD2A842685EF40007711C59F
:105464000347C500A1476314F70417F9FF1F034955
:10547400D9F6930700FD2300F4009D47A3006401BF
:105484002301F40023129400231354012314440130
:1054940023153401A2856244F240D244B249224A1F
:1054A400924A024B4A85424905616FE08FB917F968
:1054B400FF1F0349B9FEE31E0BFA938701989C432F
:1054C4009C47C5DBCE865286D6852685829755B7FE
:1054D400F2406244D2444249B249224A924A024BBF
:1054E40005618280011122CC2A84214506CE2EC674
:1054F400EFE04FAA21C1B245930700FD2300F50058
:10550400C5472301F50083C73500A301F50083D700
:1055140045002312F50083C765002303F50083C704
:105524007500AA85A303F50022856244F240056153
:105534006FE02FB1F240624405618280397162CC20
:105544002A8C594526DA4AD84ED652D456D25AD045
:105554005ECE06DE22DCAE8432C636C4BA8B3E8B07
:10556400C28A468A8359010403494104EFE08FA2A9
:1055740025C93246930700FDA2462300F50095474E
:10558400A301C500A30085012301F5002A8419465F
:105594001105A9C2B68597B0FF1FE780C044230652
:1055A4006401230A240123157401231754012318C9
:1055B400440123193401A2856254F2504259B2596C
:1055C400225A925A025BF24B624C2685D2542161D4
:1055D4006FE02FA7814597B0FF1FE7804044C1B714
:1055E400F2506254D2544259B259225A925A025B2E
:1055F400F24B624C2161828097F7FF1F83C7E7DD7E
:105604008DCB4111AA8519461385018806C697B02A
:10561400FF1FE780403D9385018817F5FF1F034571
:10562400C5DBEFF07F8DB2401385018841016F80A7
:10563400B01F0145828017F7FF1F034717DA93074E
:10564400F00F6305F708411126C2AA84294522C434
:1056540006C6EFE02F942A8429C1930700FD230096
:10566400F500A1472301F500A300950097F7FF1F5C
:10567400938787D683C72700938501881105A30FD5
:10568400F5FE194697B0FF1FE780E035A28517F5B0
:10569400FF1F034595D4EFE0CF9A17F7FF1F034789
:1056A400C7D38D47631FF700938781899C4391CBB0
:1056B40003A38700630703002244B24092444101DC
:1056C4000283B240224492444101828017F7FF1FB3
:1056D4000347A7D08D47631AF700938781899C43BA
:1056E40089C703A38700E31D03FC8280797122D458
:1056F40006D626D24AD04ECE52CC094455CD2A895C
:10570400035505002E8A5144EF40204CAA844DC510
:1057140097F7FF1F83C787D8FD1793F7F70F054740
:105724004944637BF7080347C500A1476314F700A6
:1057340063140A089C5C4544C1E3916593854571F3
:105744001305C00297C0FF1FE780200D88DCAA89DB
:105754004D443DC11306C002814597B0FF1FE78049
:10576400002C835709009386490036852391F9005C
:1057740071469305490036C697B0FF1FE780A026FF
:1057840089472380F90003C5C400B24603560900C3
:10579400611597F5FF1F83C525D013351500EF500C
:1057A400E0602A8463060A00D2852685EF40904B88
:1057B40001C42685EFF04FFB2285B2502254925447
:1057C4000259F249624A4561828097F7FF1F83C7F5
:1057D400E7CCFD1793F7F70F0547637AF708894776
:1057E40041CA011122CC26CA4AC84EC652C406CEAA
:1057F400AA89368AB2842E89EF40203D2A84D14773
:1058040039C9485509C597C0FF1FE780600DF145A8
:10581400268597B0FF1FE780E02248D4CD4705CD09
:105824008346C40021478147639FE600630D0A0055
:105834000347A5010356050193062501AA854E8554
:10584400EF40D049AA8703474400630F0900136758
:1058540067002302E400F2406244D2444249B24960
:10586400224A3E850561828013674700DDB7C94738
:105874003E8582809307200463EBA70097F7FF1F00
:10588400938707AD06053E95035505008280416563
:105894007D158280011122CC2A842E8526CA06CE4B
:1058A400AE84EF4080321DCDB7470F009387F723B6
:1058B400094563E4870281450A85414697B0FF1F85
:1058C400E780E015A685231081000A854180230125
:1058D4008100A3010100EF500039F2406244D24438
:1058E400056182804945D5BF97F7FF1F2387A7BA73
:1058F40082806F50C045797152CC2A8A328522D475
:1059040026D24AD04ECE56CA5AC85EC606D662C4FD
:10591400AE8BB28A368BBA843E89C2894684EF4004
:10592400C02A15C92A8C63140A0213774B008347D3
:10593400450015CF93E727012302FC008DEC631C7F
:105944000902639A090205E8ED9B2302FC00832BFC
:105954008C0363910B08B250225492540259F249B9
:10596400624AD24A424BB24B224C45618280F59B3B
:1059740093E70701D1B793E747002302FC0001CC6A
:105984001C484146A2852324FC0213058C0197B0D0
:10599400FF1FE780400563930B02D5D80325CC0293
:1059A40009C597C0FF1FE780A0F3F145268597B08E
:1059B400FF1FE78020092326AC0251BFE30909F841
:1059C4000325CC0209C597C0FF1FE78060F1F145AC
:1059D4004A85F1BF9DC483A70B0299EB916593851A
:1059E4003571714597C0FF1FE78020E323A0AB0208
:1059F40003A50B0219C57146A68597B0FF1FE78062
:105A040080FE6388090283A74B0299EB9165938515
:105A140025715D4597C0FF1FE78020E023A2AB02FC
:105A240003A54B0219C55D46CE8597B0FF1FE780DD
:105A340080FB1DC483A78B0299EB91659385157137
:105A4400514597C0FF1FE78040DD23A4AB0203A5A7
:105A54008B0219C55146A28597B0FF1FE780A0F8B5
:105A64002254B2509254F249B24B224CCA865A86FE
:105A74000259424BD6855285D24A624A45616FF03B
:105A8400CFE9011126CA52C406CE22CC4AC84EC65A
:105A94002A8AAE84EF40601325C5AA893945EFD020
:105AA4007FCF2A8431CD17F9FF1F0349698D631411
:105AB400090003C909009307000D2310F400AD4742
:105AC4002301F4009385690013053400194697B047
:105AD400FF1FE78040F193F7140085808588230633
